:100000000C942B060C9448060C9448060C94F2327F
:100010000C9448060C9448060C9448060C94480628
:100020000C9448060C9448060C94B82F0C9490300D
:100030000C9488170C9448060C9448060C944806B7
:100040000C9448060C9448060C9448060C944806F8
:100050000C9448060C94942F0C9448060C94480673
:100060000C9448060C9448060C9448060C944806D8
:100070000C9448060C9448060C9448060C944806C8
:100080000C9448060C9448060C9448060C944806B8
:100090000C9448060C9448060C9448060C944806A8
:1000A0000C9448060C9448060C9448060501090275
:1000B000A10185020901A1000509190129081500FE
:1000C0002501950875018102050109300931158165
:1000D000257F95027508810609381581257F9501D0
:1000E00075088106050C0A38021581257F95017572
:1000F000088106C0C005010980A101850319012AF4
:10010000B700150126B700950175108100C0050CD8
:100110000901A101850419012AA002150126A002E6
:10012000950175108100C005010906A1018506052C
:100130000719E029E71500250195087501810205D9
:1001400007190029EF1500250195F07501810205B9
:10015000081901290595057501910295017503910D
:1001600001C00660FF0961A1010962150026FF00B8
:100170009520750881020963150026FF00952075FA
:10018000089102C005010906A101050719E029E748
:1001900015002501950875018102950175088101F9
:1001A0000507190029FF150026FF0095067508812F
:1001B000000508190129051500250195057501910E
:1001C00002950175039101C000AF00AE0000000070
:1001D00000003E5B4F5B3E003E6B4F6B3E001C3EA3
:1001E0007C3E1C00183C7E3C18001C577D571C00B0
:1001F0001C5E7F5E1C0000183C180000FFE7C3E790
:10020000FF00001824180000FFE7DBE7FF0030487C
:100210003A060E00262979292600407F05050700A9
:10022000407F05253F005A3CE73C5A007F3E1C1C9E
:100230000800081C1C3E7F0014227F2214005F5F10
:10024000005F5F0006097F017F00006689956A00F4
:1002500060606060600094A2FFA2940008047E04C5
:10026000080010207E20100008082A1C0800081C26
:100270002A0808001E10101010000C1E0C1E0C0086
:1002800030383E383000060E3E0E060000000000FA
:10029000000000005F000000000700070000147F5E
:1002A000147F1400242A7F2A12002313086462009A
:1002B000364956205000000807030000001C224168
:1002C00000000041221C00002A1C7F1C2A00080894
:1002D0003E08080000807030000008080808080088
:1002E0000000606000002010080402003E514945F3
:1002F0003E0000427F4000007249494946002141CA
:10030000494D33001814127F100027454545390028
:100310003C4A494931004121110907003649494900
:100320003600464949291E00000014000000004024
:1003300034000000000814224100141414141400A6
:100340000041221408000201590906003E415D598E
:100350004E007C1211127C007F49494936003E4113
:10036000414122007F4141413E007F4949494100CE
:100370007F09090901003E41415173007F080808C7
:100380007F0000417F4100002040413F01007F0885
:10039000142241007F40404040007F021C027F0049
:1003A0007F0408107F003E4141413E007F0909095A
:1003B00006003E4151215E007F0919294600264969
:1003C0004949320003017F0103003F4040403F00A4
:1003D0001F2040201F003F4038403F006314081496
:1003E00063000304780403006159494D4300007F12
:1003F00041414100020408102000004141417F00BA
:10040000040201020400404040404000000307088D
:1004100000002054547840007F2844443800384479
:1004200044442800384444287F0038545454180069
:1004300000087E0902001824241C78007F080404A8
:10044000780000447D4000002040403D00007F10C7
:100450002844000000417F4000007C0478047800BC
:100460007C08040478003844444438007C18242470
:100470001800182424187C007C0804040800485440
:100480005454240004043F4424003C4040207C0099
:100490001C2040201C003C4030403C0044281028D8
:1004A00044004C9090907C004464544C44000008FC
:1004B00036410000000077000000004136080000CF
:1004C0000201020402003C2623263C00000000003A
:1004D000000000000000000000000000C0E0F0F894
:1004E000F81800C0F0FCFEFFFFFFFFFFFFFF7E00DB
:1004F000000000000000000080C0E0E0E0E0E0E07C
:10050000E0E0C0800000000080C0E0E0E0E0E0E06B
:10051000E0E0C080000000E0E0C0C0E0E0E0E0001B
:1005200000E0E0C0C0E0E0E0E0E0C08000000000EB
:1005300080C0E0E0E0E0E0E0E0E0C080000000003B
:1005400000000000000000000000E0F0F0F0E0EC2F
:10055000EEF7F37020007C7C7C7E007E7E7E7F7FC9
:100560007F000080C0E07E5B4F5BFEC00000C000EB
:10057000DCD7DEDEDED7DC00C000000000000000BB
:10058000000000000000000000000000000000006B
:100590000000000000F8FCFEFFE000FFFFFFFFFF8F
:1005A000FF80FFFFFFFFFFFFFFFFFF1F07010000AE
:1005B00000000000000000FFFFFF810000000000BD
:1005C0000081C3C3C30000FFFFFF810000000000E3
:1005D0000081FFFFFF0000FFFFFF0100000000009F
:1005E00000FFFFFF010000000001FFFFFF0000FF10
:1005F000FFFF9D1C1C1C1C1C1C9DDFDFDF0000007E
:10060000000000000000000000000F1F3F7F7F7F00
:100610007F7F3F1E0C001F1F1F3F003F3F3F7F7F1C
:100620007F00307B7F7830202030787F3B000300D4
:100630000F7F0F0F0F7F0F0003000000000000006E
:1006400000000000000000000000000000000000AA
:100650000000000000030F1F3F3F3F3F1F1F3F3FB1
:100660007F7F7F3F3F1F3F7F7F7F7F7C7878381C75
:100670000F0000000000000001030707070707073D
:10068000070703010000000001030707070707072A
:100690000707030100000007070700000000000033
:1006A0000007070700000000000007070700000020
:1006B00001030707070707070707030100000000FA
:1006C000000000000000000000000000000000002A
:1006D000000000000000000000000000000000001A
:1006E000000000000000000000000000000000000A
:1006F00000000000000000000000000000000000FA
:1007000000000000000000000000000009025B0083
:10071000030100A0FA0904000001030101000921FE
:1007200011010001224400070581030800010904AA
:100730000100020300000009211101000122220032
:1007400007058203200001070503032000010904B7
:100750000200010300000009211101000122B6007E
:100760000705840320000112010002000000085365
:100770004601000100010200010C0343006F0072FA
:10078000006E0065000000100366006F006F0073CC
:1007900000740061006E0000000403090412571485
:1007A000001A0008001500170016010400160007C3
:1007B0000009000A00E0001D001B000600190005EA
:1007C000000000000000000000E1002C00290013E0
:1007D0000012000C0018001C00280011570F000E1A
:1007E000000D000B000000380263003600100011FD
:1007F00000000000000000000021522A00085700FD
:10080000570157025703570457000010570F570E50
:100810005709570A570000000000000000000000C0
:1008200000000000000000E3000100010000006281
:100830000061000757065705570000000031020D00
:10084000570C570B570000000063003600000000F3
:1008500000000000000000000001004C00125700E2
:1008600000135752007D00000000000000500051AE
:10087000004F0000004C05000000001C2118210062
:10088000000000000000000000E100E200A90000FC
:1008900000DA00CD00D9000000AA000000D000CE90
:1008A00000CF000000A800000000000000000000D1
:1008B000000000000000000000D200D1002223252B
:1008C0002628292A2C2D2F3032333536383A3B3D15
:1008D0003E4042434547494A4C4E50515355575963
:1008E0005A5C5E6062646668696B6D6F7173757780
:1008F000797B7D7F81838587898A8C8E909294967F
:10090000989A9C9E9FA1A3A5A7A8AAACAEAFB1B38D
:10091000B4B6B8B9BBBCBEBFC1C2C3C5C6C7C9CADD
:10092000CBCCCDCED0D1D2D2D3D4D5D6D7D7D8D99F
:10093000D9DADADBDBDBDCDCDCDCDCDDDDDDDDDCFD
:10094000DCDCDCDCDBDBDBDADAD9D9D8D7D7D6D50F
:10095000D4D3D2D2D1D0CECDCCCBCAC9C7C6C5C3D1
:10096000C2C1BFBEBCBBB9B8B6B4B3B1AFAEACAA1E
:10097000A8A7A5A3A19F9E9C9A98969492908E8CCE
:100980008A89878583817F7D7B79777573716F6DA8
:100990006B6968666462605E5C5A59575553515082
:1009A0004E4C4A4947454342403E3D3B3A38363536
:1009B0003332302F2D2C2A292826252322FFAA7FE7
:1009C0005540000101010101010101010202020281
:1009D00002020202020303030303030303040404E9
:1009E00004040404050505050506060606060707B2
:1009F00007070708080808090909090A0A0A0B0B6A
:100A00000B0C0C0C0D0D0D0E0E0E0F0F0F10101108
:100A1000111112121313141415151616171718188E
:100A200019191A1A1B1B1C1D1D1E1E1F20202122F6
:100A300022232424252626272829292A2B2C2D2D3C
:100A40002E2F30313232333435363738393A3B3C59
:100A50003D3E3F404142434445464748494A4C4D4C
:100A60004E4F50515354555658595A5B5D5E5F6115
:100A70006264656668696B6C6D6F707273757778A8
:100A80007A7B7D7E8082838587888A8C8E8F919306
:100A90009596989A9C9EA0A2A3A5A7A9ABADAFB12D
:100AA000B3B5B7BABCBEC0C2C4C6C9CBCDCFD1D412
:100AB000D6D8DBDDDFE2E4E7E9EBEEF0F3F5F8FAB8
:100AC000FDFF00DA0281FFD9F1DB20A4A62EAF00E2
:100AD000A0C0D30000A1C8D30000AED580A81F409D
:100AE0008D1420001E0F0500047F3F1F6432146424
:100AF0003214783C1E1E140A058081828384858608
:100B00008788898A8B8C8D8E8F9091929394A0A1E7
:100B1000A2A3A4A5A6A7A8A9AAABACADAEAFB0B13D
:100B2000B2B3B4C0C1C2C3C4C5C6C7C8C9CACBCC9E
:100B3000CDCECFD0D1D2D3D4003A002C206B0078C8
:100B400000556E6465660041646A75737400526195
:100B5000697365004C6F7765720044656661756CFA
:100B600074004C617965723A2000000000000000BA
:100B70000000000000000000000000000000000075
:100B800000000000000000000000000000007E0FD8
:100B900000D4FFFFFFC70000007800000000000045
:100BA00000002A2B280000000000000000000000C8
:100BB000000000000029000000002C1E342021222B
:100BC00024342627252E362D3738271E1F20212294
:100BD000232425263333362E37381F04050607080D
:100BE000090A0B0C0D0E0F101112131415161718FD
:100BF000191A1B1C1D2F3130232D3504050607083B
:100C0000090A0B0C0D0E0F101112131415161718DC
:100C1000191A1B1C1D2F3130354C202020206162F9
:100C2000636465666768696A6B6C6D6E6F7071721C
:100C3000737475767778797A31323334353637385C
:100C40003930524542545F2D3D5B5D5C233B27604C
:100C50002C2E2F20202011241FBECFEFDAE0DEBF84
:100C6000CDBF28E0A6E5B3E001C01D92A739B207C9
:100C7000E1F713E0A0E0B1E0EAEDFCE602C0059088
:100C80000D92A635B107D9F70E949B260C941B360E
:100C90000C9400009C01FB019A9581159F4120F561
:100CA000D901AA27B270832F8170B90166277470A9
:100CB000A9014427587034FF0DC08295807FAB2B6B
:100CC00009F08062672B09F08064452B09F0806889
:100CD00009950895AB2B09F08260672B09F08460B9
:100CE000452BB1F38860F4CF80E0F2CF982F829546
:100CF0008F70882311F0982F84E0292F2695269550
:100D0000222311F08E5F922F969591118F5F089597
:100D100080935308089580935408089521E030E0AB
:100D200001C0220F8A95EAF780915408822B0E9415
:100D30008B06089521E030E0A90102C0440F551F41
:100D40008A95E2F7CA0180959091540889230E9400
:100D50008B06089521E030E001C0220F8A95EAF762
:100D60008091540882270E948B060895292F98307D
:100D700098F5863088F590E036E0239F800D911D30
:100D80001124282F277041E001C0440F2A95EAF76B
:100D900023E0969587952A95E1F7FC01EE0FFF1F5A
:100DA000E80FF91FEE5DF74F20E030E070E0519161
:100DB000DF011197CB01022E02C0969587950A9408
:100DC000E2F7817081958527842385278C932F5F97
:100DD0003F4F2330310559F70895292F983078F582
:100DE000863068F590E036E0239F800D911D112438
:100DF000682F677023E0969587952A95E1F7FC01A7
:100E0000EE0FFF1FE80FF91FEE5DF74F40E050E0D7
:100E100080E0219130E0062E02C0369527950A9495
:100E2000E2F721703327042E01C0220F0A94EAF75B
:100E3000822B4F5F5F4F4330510559F7089580E093
:100E400008959091540821E030E0F90101C0EE0FBF
:100E50008A95EAF7D90102C0AA0FBB1F6A95E2F78B
:100E6000EA2B01C0220F4A95EAF7892F8E23E81357
:100E700005C0892F822B0E948B0608952095822F12
:100E80008923F9CF8091570890915608981301C093
:100E900008958F5F8770FACF803E9105D1F1C8F435
:100EA0008133910509F47FC048F48932910509F432
:100EB0006FC08A32910509F47DC008958933910588
:100EC000E1F082389105C9F08533910509F45BC0E2
:100ED0000895843E9105D1F148F4823E910531F1A7
:100EE000833E910541F181EE90E00895863E9105A3
:100EF000C1F1873E9105E1F10895209134082370F6
:100F0000211165C02091350823FF14C089E290E0CB
:100F100008952091340820FD43C03091350830FFFA
:100F200009C024FF4EC080E090E00895209134086D
:100F300022FDF7CF08952091340822FD45C030915D
:100F4000350830FD44C024FFF5CFEDCF20913508A2
:100F500021FFF0CF8091340884FDE5CF87EE90E04B
:100F600008952091340823FFE5CF24FDDCCFF6CF90
:100F70002091340823FD2EC03091350831FFE3CF96
:100F800084EE90E008952091340825FFD3CFBECFA2
:100F90002091340825FD21C02091350823FFCACFB8
:100FA00089E390E008952091340826FFC3CF8AE2B8
:100FB00090E008952091340826FFBCCF81E390E0B3
:100FC000089583EE90E0089582EE90E0089580EE1B
:100FD00090E0089586EE90E0089585E390E0AACF32
:100FE0009091340892FF10C041E0282F24712430E2
:100FF00009F040E031E0282F2871283009F030E076
:10100000431711F02CE0822793FF10C041E0282FF6
:101010002471243109F040E031E0282F2871283173
:1010200009F030E0431711F02CE0822730913508A9
:1010300030FF10C051E0282F2171213009F050E01D
:1010400041E0282F2871283009F040E0541711F0B2
:1010500029E0822731FF10C041E0282F2171213182
:1010600009F040E031E0282F2871283109F030E004
:10107000431711F029E0822794FD877E08951F937E
:10108000CF93DF930E944C07EC01811520E5920776
:1010900008F048C0811540E4940708F0C2C0803EC3
:1010A0009105E0F0811550E2950798F18D2F8F7131
:1010B0000E94F007182FCE0199270E944C07212F7C
:1010C00030E0322F222722273F71282B392BE901CC
:1010D000D062CE01DF91CF911F9108958D3C910593
:1010E00008F08BC0883A910560F4853A910508F0C4
:1010F00076C08130910569F30497813A910548F3F0
:1011000005C0885A91094B9708F46CC0C0E0D0E044
:10111000E0CF8F3F910511F008F071C0805E91091A
:101120000797EDCFC03682E5D80738F5C03422E501
:10113000D20708F093C0C03242E5D40738F0CF712F
:10114000D0E0DC2FCC27C16FD06AC3CF8C2FC11564
:1011500052E5D50708F06EC08F710E94F007282F66
:1011600030E084FD9CC085E0D695C7958A95E1F76F
:10117000CF703C2BE901D069ACCFC03C82E5D807E9
:1011800008F5C03A22E5D20708F07EC0CE018056AD
:101190009245809708F0BACF8C2F869586958770F8
:1011A00050E2859FC0011124C37021E030E0A90105
:1011B00002C0440F551FCA95E2F7EA01C82BD92B8C
:1011C000DA6887CFCE01805C9245809708F09ECF89
:1011D000DC2FCC27CC27DF71C06FD06A7ACFA497E1
:1011E000D06477CFC85AD0E0CC0FDD1FC05EDC4F93
:1011F0000990D881C02DD4646CCFD0656ACF8D2F73
:101200000E94F007182FCE0199270E944C07212F2A
:1012100030E0322F2227E901CC27DF71C82BD92BF0
:1012200058CF99270E944C07CC27DF70C82BD92BA9
:10123000D06A4FCF8695869540E2849FC0011124E5
:10124000C37021E030E0A90102C0440F551FCA95C8
:10125000E2F7EA01C82BD92BDD683BCF8C2F8695AE
:101260008695877050E2859FC0011124C37021E0EC
:1012700030E0A90102C0440F551FCA95E2F7EA0108
:10128000C82BD92BDC6825CF8C2F8F710E94F007DB
:10129000C82FD0E0DC2FCC27CC27DF711ACF94E009
:1012A000220F331F9A95E1F75ECF80E00895F894FE
:1012B000E82FE295EF70F0E041A18F7021E030E07F
:1012C000B90102C0660F771F8A95E2F7CB01962F0E
:1012D0009095942391A392A1892B82A37894089549
:1012E0000895A0E0B0E0E7E7F9E00C942934E901C3
:1012F000493708F048E7E42FF0E0EE53F64F61116C
:101300000BC0E4919E2F8E2F8983E8839A83CDB7FB
:10131000DEB7EAE00C944534282F30E0062F10E0C9
:10132000F491EF2F86E0829F6001839FD00C1124FF
:10133000EE24EA94F12CC601B7010E940D34220F6D
:10134000331F45E5469FC001479F900D1124281B80
:10135000390B822F880F280FC701801B910BF89F34
:10136000A001F99F500D1124952F209F5001219F1E
:10137000B00C1124AB2CBB24D701AA19BB095D0109
:10138000FA9DD001FB9DB00D11248B2F5701A21A9D
:10139000B1089501209F5001219FB00C309FB00CE7
:1013A0001124AB2CBB24EA18FB08FE9D9001FF9D85
:1013B000300D112463307105C9F01CEFC11613E024
:1013C000D10650F46130710509F49ECF6230710589
:1013D00089F08E2FE32F98CF6430710571F066305D
:1013E0007105B9F3E52F9B2F8F2F8ECFEB2F852F14
:1013F0009F2F8ACF852F932F87CF832FE52FF8CF6D
:1014000080914A08843060F48370846080934A0835
:1014100080914D08893718F088E780934D0808952A
:101420008C3AB0F38370886AF1CF60916401809147
:101430004A0880FF0EC070E02091630130E0C901CE
:10144000880F991F820F931F85549B4F0E94DF0FB7
:1014500008958091650190916601282F30E0F9018F
:10146000EE0FFF1FE20FF31FE554FB4F891718F72C
:101470001182108212828F5F3396F8CFEF92FF9223
:101480001F93CF93DF93EC0110E0EE24EA94F12C4C
:1014900060916701161770F00E94150A9A818C817D
:1014A00090FF25C08F5F8C83DF91CF911F91FF90BC
:1014B000EF90089580916501810F9927991F9C01F4
:1014C000220F331F280F391F25543B4F70E0C701EF
:1014D0000E947234962F8C8140914D0860914C0887
:1014E000199F800D11240E9471091F5FD1CF815077
:1014F000DACFA0E0B0E0EFE7FAE00C942834EC019A
:10150000A09067018C819A8190FD0DC0BB24B3949B
:1015100081110DC08FEF8A0DBB24B3948093BA0460
:1015200081E08C8304C0BB24BA948823B9F3E12CF6
:10153000F12CEA14B8F00E94150A9091BA04E1E087
:10154000BE1254C0809167018150992319F08FEF2A
:10155000890F91E08093BA049C83CDB7DEB7EBE0AE
:101560000C944434809165018E0D9F2D911D8C014A
:10157000000F111F080F191F05541B4FF80111828E
:101580001082128234E0C32ED12C912C8091BA04A7
:10159000890D87333CF166E30E946434892F082E5D
:1015A000000C990B8E159F0591F480914D088C9D30
:1015B000A0018D9D500D1124559547955595479542
:1015C000980160914C0880914B080E9471099B0C16
:1015D000F1E0CF1AD108C114D104C1F68FEFE81A97
:1015E000F80AA7CF87FFDBCF8A0DD9CF892F90E0EC
:1015F00001966091670170E00E947234982FAACF23
:101600000F931F93CF93DF93EC018C81811109C05D
:1016100081E08C831092B90492E0909357018093FB
:1016200056011091650120916601812F90E0FC0127
:10163000EE0FFF1FE80FF91FE554FB4F821750F123
:1016400000E060916701061758F10E94150A809129
:1016500056012091B904280F2093B90490915701A5
:10166000980F90935701191654F4022E000C330B67
:10167000409167014150550B2417350734F081958F
:1016800080935601813009F41C82DF91CF911F9124
:101690000F9108951182108212828F5F3396CECF00
:1016A000202F30E070E0C9010E947234810F90E079
:1016B0004091B904042E000C550BFC01EE0FFF1FE6
:1016C000E80FF91F24173507ACF040915701042E9D
:1016D000000C550B421753076CF09F0125543B4FEC
:1016E00040914D0860914C0880914B080E9471090F
:1016F0000F5FA7CFE554FB4F118210821282F8CF03
:10170000AEE0B0E0E6E8FBE00C942D348D879E87D8
:10171000AD85BE8514961C91212F30E0D9010E9421
:101720000C369B01AC010E94D73569837A838B8389
:101730009C83E0E2F0E0E11BF109A5E5B0E09B014C
:10174000AC010E94D73569877A878B879C879F0178
:10175000DF010E9493349B01AC010E94E2356D834E
:101760007E838F8398879B01AC0189819A81AB81AD
:10177000BC81280F391F4A1F5B1F69857A858B85BD
:101780009C850E94EA35022F30E00A3248F5A90113
:10179000440F551F420F531F55954795142F109511
:1017A000F12C85E5E82EE01A80916701F81630F1FA
:1017B0000E94150AAD85BE8514969C9181E09923FF
:1017C00019F0903219F48FEF8093550180915501F3
:1017D000890FED85FE8584832E96E6E00C944934CE
:1017E00085E590E0821B930BAC01440F551F480F19
:1017F000591F57FFD1CF4F5F5F4FCECF8E2DF1FCDA
:10180000802F409165014F0D5527551F9A01220FDA
:10181000331F240F351F25543B4F412F60914C0837
:101820000E947109F394C0CF0F931F93CF93DF935E
:10183000EC0100E010E040916701842F90E0081770
:1018400019076CF00E94150A8C8190E00196817056
:1018500099278C83DF91CF911F910F9108958091EB
:101860006501800F912F911D9C01220F331F280FBE
:10187000391F25543B4F9C8160914C0880914B0847
:10188000469550E0041715074CF4992349F0409110
:101890004D080E9471090F5F1F4FCDCF9923B9F3F7
:1018A00040E0F7CF90914A0890FF11C090916501F8
:1018B00050916601292F30E0F901EE0FFF1FE20F72
:1018C000F31FE554FB4F951718F00E94150A089571
:1018D0008183608342839F5F3396F5CFA3E0B0E0BE
:1018E000E4E7FCE00C942F348C018091B804811162
:1018F0000AC09E012F5F3F4F48E76FEF0E947109BA
:101900008A818093B804F8016481613049F06230C3
:10191000D1F08091B80440E0662331F040E015C07A
:101920006091B80440E080E00E94520CF80184818C
:1019300090E0019663E070E00E9472348483239605
:10194000E4E00C944B344091B80480E060E0ECCFCC
:10195000A3E0B0E0EEEAFCE00C94313490914A0848
:1019600090FF0AC09E012F5F3F4F0E9471094B817B
:1019700069818A810E94520C2396E2E00C944D34D6
:10198000CF93DF93EC01EAE4F8E0438162818C813C
:101990000E94A80C8C818F5F8C83DF91CF9108957A
:1019A000E7E4F8E011828281846082830895EAE4AA
:1019B000F8E080818E7F80830E94D00CE7E4F8E01D
:1019C0008281816082830E94150A0895CF93DF93FC
:1019D000EC01EC81F0E0E354F74F4491EAE4F8E0E5
:1019E000628181810E94A80C8C818F5F8C83DF9142
:1019F000CF910895FA01882311F009950895FB010C
:101A0000FCCF539A0895282F35EB2303C0011124EE
:101A100097FF04C080589109892F089580589F4FDF
:101A2000FBCF8091380880FD16C081FD16C082FD75
:101A300018C080913708882391F0803490F420E317
:101A4000829FC001112426E0959587952A95E1F79C
:101A5000009749F008958CE0089588E1089588E0A2
:101A6000089580E3089581E008958091380880FD0D
:101A700017C081FD17C082FD19C0809136088823E8
:101A800099F0883298F428E0829FC001112468E21E
:101A900070E00E9472346115710551F0862F08952F
:101AA00062E0FCCF64E0FACF61E0F8CF68E0F6CF07
:101AB00081E00895FA01309709F009950895809121
:101AC000F407882359F0E0911808F091190830972D
:101AD00029F00190F081E02D0995089580E00895A6
:101AE000A3E0B0E0E6E7FDE00C9431349C01809186
:101AF000A8039091A90382179307A1F03093A9033B
:101B00002093A803E0911808F0911908309751F03C
:101B100083E089833B832A830084F185E02DCE0115
:101B2000019609952396E2E00C944D34A3E0B0E0D1
:101B3000ECE9FDE00C9431349C018091A603909176
:101B4000A70382179307A1F03093A7032093A6035E
:101B5000E0911808F0911908309751F084E08983DA
:101B60003B832A830084F185E02DCE0101960995FF
:101B70002396E2E00C944D349091A4019923E1F076
:101B80009091340897FF18C0E82FE695E695E69502
:101B9000803FF0F4F0E0E05AFC4F877021E030E045
:101BA000A90102C0440F551F8A95E2F7CA0180952A
:101BB0009281892382830895EAE5F3E09191891364
:101BC00003C0DF0111971C9253E0E036F507B1F72F
:101BD0000895A4E0B0E0EFEEFDE00C9431348FB74F
:101BE000F8942091D4073091D5074091D6075091B1
:101BF000D70729833A834B835C838FBF69817A81BE
:101C00008B819C812496E2E00C944D34A4E0B0E0FA
:101C1000ECE0FEE00C9431348091F407882371F0FD
:101C20000E94E90D69837A838B839C8369817A8121
:101C30008B819C812496E2E00C944D340E94E90D46
:101C400069837A838B839C838091F0079091F1075D
:101C5000A091F207B091F30729813A814B815C8111
:101C6000280F391F4A1F5B1F29833A834B835C83EC
:101C7000DDCF87E797E7909301088093000888E11C
:101C80009AE00FB6F894A895809360000FBE9093E9
:101C90006000FFCF8091A5030895FC019B01809116
:101CA0009B0390919C038617970740F0672B29F4BC
:101CB0008091E8008E778093E800C90140E00097AA
:101CC00041F4411106C08091E80082FF2FC080E0FE
:101CD00008952091BF072223A9F12530A9F1209171
:101CE000E80023FD2DC02091E80022FDECCF2091DB
:101CF000E80020FFE4CF3091F3002091F20000973C
:101D000019F02830310558F041E02830310509F04C
:101D100040E02091E8002E772093E800D0CF419159
:101D20004093F10001972F5F3F4FE9CF8091BF07AC
:101D3000882341F0853041F08091E80083FFC3CFD4
:101D400081E0089582E0089583E0089580919503ED
:101D500087FF13C08091E80082FF06C08091E800F1
:101D60008B778093E80004C08091BF078111F2CF88
:101D700008958091BF078823D9F38091E80080FF00
:101D8000F8CF8091E8008E77ECCF2091E40030917D
:101D9000E50095E6A9018091EC008170882331F07F
:101DA0008091E80080FF06C080E008952091E8005F
:101DB00022FD1BC08091BF07882391F0853091F0F0
:101DC0008091EB0085FD10C02091E4003091E5008A
:101DD0004217530701F391509111DCCF84E008952D
:101DE00082E0089583E0089581E00895E8EDF0E051
:101DF00080818E7F80831092E2001092DA00109230
:101E0000E100A0EEB0E08C9181608C9380818F77AF
:101E1000808319BCA7EDB0E08C918E7F8C9380817C
:101E20008F7E8083109294030895FC01AC014C5F77
:101E30005F4F8FEF91E32191822728E030E087FF09
:101E40000BC0880F89272150310921153105B9F7B9
:101E5000E417F50781F70895880FF5CF982FE42F41
:101E6000E2709093E900891308C0762F242F50E088
:101E7000E11111C091E0980FF4CF7091EC00209126
:101E8000ED005091F00021FD06C09F5F973049F7AB
:101E90008093E90008953091EB003E7F3093EB0092
:101EA0003091ED003D7F3093ED003091EB003160DB
:101EB0003093EB007093EC002093ED005093F00012
:101EC0002091EE0027FDE1CF0895A0E0B0E0EBE621
:101ED000FFE00C942B34C8EDD0E088818F7E88839E
:101EE000E7EDF0E080818160808384E082BF81E063
:101EF0008093940388818E7F888302EE10E0F8013E
:101F000010821092DA0081EEC82ED12CF6011082D8
:101F100088818F77888388818068888388818F7D96
:101F2000888319BC1092BF07109293031092690521
:101F30001092920390EEE92EF12CF70180818B7FB5
:101F4000808388818160888342E060E080E00E9435
:101F50002E0FF60180818E7F8083F8018081816061
:101F60008083808188608083F70180818E7F808379
:101F7000888180618883CDB7DEB7E8E00C94473470
:101F8000E09157089091560827E0E91302C080E0DD
:101F90000895AE2FB0E02E9FF0011124E85AF74FBC
:101FA0003181361306C03081381303C035813413B4
:101FB00004C0FD013196E770E8CF81E008959C01EF
:101FC000AB016BB1677F7BB17860EFB7F894CA0162
:101FD000880F991F840F951F820F931F82179307F5
:101FE00041F4EFBF8FE594E00197F1F700C00000E6
:101FF0000895D9014D919D0158E07BB9000000C0C2
:1020000047FF6BB9440F000000C000C000C06BB9AF
:1020100000C05A9591F7E2CF0F931F93CF93DF93B0
:10202000EB018A019091BF07943079F58093E90024
:102030008FEF9091E80095FD07C095ED9A95F1F727
:10204000000081508111F5CF8091E80085FF1DC00F
:102050000E94C50E811114C08091E80085FD06C064
:102060008091E8008E778093E800F2CF888180939A
:10207000F100015011090115110511F02196ECCF65
:102080008091E8008E778093E800DF91CF911F91D7
:102090000F910895CF93DF93D82FC92F48E050E0D8
:1020A000682F792F81E00E940C1088E0ED2FFC2F23
:1020B000ADE9B3E001900D928A95E1F7DF91CF9100
:1020C0000895BC0140E250E084E00E940C100895A5
:1020D000BC0146E050E084E00E940C100895BC0171
:1020E00043E050E084E00E940C100895A0E0B0E0CE
:1020F000ECE7F0E10C942934F82EE92EB62EA72E49
:102100008A0180919003CC24C394D12C8A3018F496
:102110008AE0C82ED12CC1E0D0E06B2D7A2D8F2D16
:102120009E2DF8010995811116C02196CC16DD0669
:1021300094F0CC9FC001CD9F900D900D112420E014
:1021400030E045E34A95F1F700002F5F3F4F281735
:102150003907B9F7E2CFCDB7DEB7EAE00C944534E2
:102160000F931F93CF93DF93843030F5683020F5C1
:10217000463010F5C42FD0E0CC0FDD1F2CE0629F5D
:10218000C00DD11D112430E6839FC00DD11D112437
:10219000CE0188960E946035082F10E0102F00278E
:1021A000CE0189960E9460359801282BC901DF91E4
:1021B000CF911F910F91089580E090E0F8CF462FC6
:1021C000672F783038F4463028F4843018F40E94B1
:1021D000B010089580E090E00895A0E0B0E0E3EF53
:1021E000F0E10C942C347C01009154088091530848
:1021F000082BC3E0D0E010E0C8010C2E02C095957A
:1022000087950A94E2F780FD09C02197A8F7D12CA1
:102210008D2DCDB7DEB7E7E00C944834DC2EB70146
:102220008C2F0E94DF100E943F08019771F3F0CFBE
:102230000F931F93CF93FC01858100811181882327
:1022400091F0662381F0C8010E94ED10C82F682F1D
:10225000C8010E94B606B8018C2F0E94DF10CF91F2
:102260001F910F910895C8010E94ED06C82FF3CF6A
:10227000CF93DF93D82FC92F0E94ED106D2F7C2FA5
:102280000E94DF100E943F08DF91CF910895FC016A
:1022900084818823A1F0808191810E943811282FA8
:1022A00092959F70963091F060F4925F9F7092309B
:1022B00030F481E0203F79F030F4283E30F080E0C7
:1022C00004C09A5FF3CF243FD1F7089581E0283E00
:1022D00018F0213FF9CF0895089584E290E00E941C
:1022E0006035843289F485E290E00E946035873061
:1022F00059F486E290E00E94603591E0813309F064
:1023000090E0892F8170089580E0FCCF809155087E
:1023100090915208892B9091A401992349F19091B1
:10232000340897FF25C08093610340E250E068EFD6
:1023300077E080E693E00E944A35892BC1F080E285
:10234000E0E6F3E0A8EFB7E001900D928A95E1F79F
:10235000E0911808F0911908309749F086E08093D1
:1023600060030480F581E02D80E693E009950895EF
:102370008093580348E050E06AE178E088E593E014
:102380000E944A35892B99F388E0E8E5F3E0AAE159
:10239000B8E001900D928A95E1F7E0911808F0916C
:1023A0001908309721F30280F381E02D88E593E04E
:1023B000DDCF882339F090915208892B8093520801
:1023C0000E9486110895882339F090915508892B31
:1023D000809355080E9486110895882341F08095C6
:1023E000909152088923809352080E948611089583
:1023F000882341F080959091550889238093550852
:102400000E9486110895CF93DF93EC0149855A8588
:102410006D857E850E945A0D9B819095809155080F
:102420008923809355080E94861185E0FE01119250
:102430008A95E9F7DF91CF910895CF93DF93EC016F
:102440008C8181FD11C082608C83809155089B81B5
:10245000892B809355080E9486114F8158856D8580
:102460007E85CE010E945A0D1092440810924308B6
:102470008C8180FD03C0CE010E940312DF91CF91B9
:102480000895A8E0B0E0E7E4F2E10C943034409124
:10249000C4075091C5076091C6077091C7072FB751
:1024A000F8948091D4079091D507A091D607B09168
:1024B000D7072FBF841B950BA60BB70B11E08436F3
:1024C0009105A105B10578F10E94060EDC01CB0152
:1024D0000296A11DB11D89839A83AB83BC83809131
:1024E0009501909196018852984F20919401422F26
:1024F00050E0253010F044E050E0BE016F5F7F4FA8
:102500000E94573583E090E00E949833182F88236B
:1025100051F00E94E90D6093C4077093C507809342
:10252000C6079093C707812F2896E3E00C944C349C
:10253000A0E0B0E0EEE9F2E10C942B34E82FEB01DF
:10254000B901D801C880D980EA80FB808FB7F894A0
:102550000091D4071091D5072091D6073091D70765
:102560008FBF0C191D092E093F09043611052105DD
:10257000310510F4442309F10E2F0E2E000C110B1F
:1025800088E0E802F0011124E458FE4F8181928135
:102590008852984F408150E0A417B50708F4AD0168
:1025A0000E945735C8010E949833882339F00E9451
:1025B000E90D688379838A839B8381E0CDB7DEB799
:1025C000E8E00C9447340F931F93CF93DF93D82FF9
:1025D000C92F44E050E06DED77E00E944A3541E0BC
:1025E000892B09F440E004E010E02D2F3C2F68EC2B
:1025F00077E082E00E949812DF91CF911F910F91B6
:102600000895ABE0B0E0E7E0F3E10C942F3428E06C
:10261000EAE4F8E0CE010196DC0101900D922A95E2
:10262000E1F73091470820914808509149083987CF
:102630002A875B8741E09C01511101C040E00BE01B
:1026400010E060EC77E084E00E9498128111109213
:1026500049082B96E4E00C944B34EF92FF921F93C1
:10266000CF93DF9300D000D00F92CDB7DEB77B01C0
:1026700080E090E00E949833182F81111AC010E07A
:102680008091CC079091CD07A091CE07B091CF0754
:10269000F70180839183A283B383812F0F900F90E2
:1026A0000F900F900F90DF91CF911F91FF90EF90BF
:1026B000089580917F01482F50E0882311F041E078
:1026C00050E060918001709181016852784FCE0195
:1026D00005960E9457354091D0075091D1076091DF
:1026E000D2077091D3072FB7F8948091D4079091B7
:1026F000D507A091D607B091D7072FBF841B950BA4
:10270000A60BB70B84369105A105B10538F489ED08
:1027100097E00E94150F9D818917B9F181E090E043
:102720000E949833882309F4AACF80918701482F0B
:1027300050E0853010F044E050E0609188017091E5
:1027400089016852784FCE0101960E94573589ED74
:1027500097E00E94150F9D81891391CF0E94E90D8A
:102760006093D0077093D1078093D2079093D307DB
:1027700089819A81AB81BC818093CC079093CD07EE
:10278000A093CE07B093CF077BCF8091D9079091CC
:10279000DA07A091DB07B091DC0789839A83AB83CA
:1027A000BC83E6CF1F93CF93DF93962F122F632F17
:1027B0008430D8F49830C8F44630B8F4C42FD0E050
:1027C000CC0FDD1F2CE0929FC00DD11D112490E68F
:1027D000899FC00DD11D1124CE0188960E94843599
:1027E000612FCE0189960E948435DF91CF911F9190
:1027F0000895AF92BF92CF92DF92FF920F931F93F3
:10280000CF93DF93A12CB12CC0E06501D0E019C0BB
:1028100021E030E0C33021F0F801859194919C01D2
:102820004F2D6D2F8C2F0E94D213F3940E5F1F4FEC
:1028300086E0F812EDCFDF5F86E0C80ED11CD830FD
:1028400039F08601000F111F0356184FF12CE0CF0D
:10285000CF5F80E3A80EB11CC430B9F6DF91CF91F1
:102860001F910F91FF90DF90CF90BF90AF90089590
:10287000CF93DF93C8EAD1E060E0CE010E948435B7
:102880002196C11584E0D807B9F7DF91CF9108955B
:10289000882381F064E284E290E00E94843567E05E
:1028A00085E290E00E94843561E386E290E00E9438
:1028B000843508956FEF84E290E00E9484356FEFD5
:1028C00085E290E00E9484356FEFEFCF80E00E94B8
:1028D000481460E087E290E00E9484350E94F9137A
:1028E0000E94381481E00E9448140895A0E0B0E0EE
:1028F000ECE7F4E10C942334FC016280448081E035
:102900008483EDEBF8E07490ECE3F9E0E491C0919E
:102910004D08C695C158D0E0CC0FDD1FCD2FDD2767
:10292000812C75E0972EAA24AA94B12C55245A9490
:10293000E719EE2EF12C80916701881638F00E947D
:10294000150ACDB7DEB7E0E10C943F34C82CD12C8A
:1029500082E0861568F09C9CF0019D9CF00D11248E
:10296000E655FC4F80914B08808380914C08818311
:10297000411023C09C9CF0019D9CF00D1124E65554
:10298000FC4F13821282809165018C0D9D2D911D4B
:102990009C01220F331F280F391F25543B4F9C9C4D
:1029A000F0019D9CF00D1124E655FC4F42816181A0
:1029B00080810E9471098394BECF9C9C80019D9C64
:1029C000100D112406551C4FF80183818823F1F066
:1029D00081508383589EC0011124648170E00E945D
:1029E0000D34FB01FF27E354F74F8491E82FE719DB
:1029F0005E9EC0011124B7010E940D3480914D08E4
:102A0000689FB0011124F8017283BDCF0E94243564
:102A1000B5010E9472348C179D070CF0B4CFF2E020
:102A2000F61598F40E942435B5010E947234F8011D
:102A300080830E94243520914C082695622F70E0F7
:102A40000E947234280FF80121839C9CF0019D9C08
:102A5000F00D1124E655FC4F128280914D08893CFF
:102A600058F088EC9C9CF0019D9CF00D1124E655DB
:102A7000FC4F8483838387CF8431A0F784E1F2CF36
:102A8000A0E0B0E0E6E4F5E10C942B348901D42F0A
:102A9000C52F6B017C010E94000AA8016D2F7C2FBD
:102AA00088E090E00E94963598014D2F5C2FB6018A
:102AB000C70100E20E94BD34622F83E290E00E94D1
:102AC0008435CDB7DEB7E8E00C94473480914E08EA
:102AD000833018F48F5F80934E0820914A0830911C
:102AE0004B0840914C0850914D0860914E087091F0
:102AF0004F0880915008909151080E944015089508
:102B000080914E08882319F0815080934E082091BF
:102B10004A0830914B0840914C0850914D08609103
:102B20004E0870914F0880915008909151080E9472
:102B300040150895A3E0B0E0E0EAF5E10C942934F3
:102B4000F82ED62EE42EB22E90914A0890FF42C065
:102B500030914B08381308C080914C08861304C08C
:102B600080914D08841729F08091490882608093F4
:102B70004908E92FE695E695AE2FB0E0AF51BD4F7D
:102B80008C91809347089C7F943041F59E012F5F84
:102B90003F4F4E2D6D2D8F2D0E9471094B81698104
:102BA0008A810E94520C3F2D30934B08D0924C08E2
:102BB000E0924D08BB2071F020914A0860914E08C8
:102BC00070914F084D2D5E2D8091500890915108C5
:102BD0000E9440152396EAE00C944534823019F4A3
:102BE000E0904D08E0CF8630F9F28930E9F2893182
:102BF000D1F6E9518E2F8170A82EE695F0E0E354CE
:102C0000F64FE491C12C0E2F10E060916701C616BB
:102C100018F00E94150AC7CF2C2D30E0C09EC001CD
:102C2000C19E900D112470E00E940D348F2DA110D3
:102C300013C0860F90916501A901490F511D9A019A
:102C4000220F331F240F351F25543B4F4E2D6D2D62
:102C50000E947109C394D9CF861BECCFEAE4F8E057
:102C6000818121E043816281865F0E949A150895E7
:102C7000EAE4F8E0818121E0438162818A500E9488
:102C80009A150895EAE4F8E0628121E1620F08F400
:102C90006FEF21E0438181810E949A150895EAE453
:102CA000F8E0628121E1621B08F460E021E04381E9
:102CB00081810E949A150895EAE4F8E0438121E1B8
:102CC000420F08F44FEF21E0628181810E949A1542
:102CD0000895EAE4F8E0438121E1421B08F440E072
:102CE00021E0628181810E949A150895AB0124E65A
:102CF00030E0BC0188E70E94AF319C0181E0232BCA
:102D000009F080E008958091B107882369F08091EF
:102D1000AE07882349F062E070E08AEC91E00E94FF
:102D2000761681111092AE070895A4E0B0E0EBE9A9
:102D3000F6E10C9431348091B1078823F9F00E94B8
:102D4000E90DDC01CB01805A9541AF4FBF4F809315
:102D5000AA079093AB07A093AC07B093AD078091FF
:102D6000AE0781110BC062E070E088EC91E00E9438
:102D70007616882319F081E08093AE072496E2E06E
:102D80000C944D34CF93DF93682F81E06A3019F0B3
:102D90006D3031F480E00E944217DF91CF910895A9
:102DA00080917C0590917D0526E0FC01AAE8B3E0C6
:102DB00001900D922A95E1F7603E08F458C026E094
:102DC000FC0111922A95E9F7C0917C05D0917D050F
:102DD00046E050E0BE018AE893E00E944A359E0139
:102DE000265A3540892B41F1C90145E096958795D2
:102DF0004A95E1F741E050E0BA0102C0660F771F43
:102E00008A95E2F7CB016091A8077091A907862BFC
:102E1000972BB9016B5F7F4FE5E076956795EA9553
:102E2000E1F702C0440F551F6A95E2F7842B952BFA
:102E30009093A9078093A8072A5F3F4F40917E0592
:102E4000642F70E0C9010E940D34481B463010F415
:102E5000240F311D211572E0370710F020E030E01B
:102E60002A553A4F30937D0520937C0596CFF6E0A6
:102E70006F9FB001112464537E4F46E050E00E94E2
:102E80003435A2CFCF93382FE0917C05F0917D05AA
:102E9000E65AF54020917E05622F70E0CF010E9436
:102EA0000D34281B822F332361F066E00E945834D2
:102EB000C82FC15010F4CF91089580E20E94C2162D
:102EC000F8CF9F01280F311D2115324018F080E006
:102ED000E0E0F0E08E0F9F2F911D8A559A4F90935E
:102EE0007D0580937C05E7CFCF93DF93EC01FE0156
:102EF0008491811103C0DF91CF9108950E94C21681
:102F00002196F5CF0E94741781E00E944217089520
:102F10001F921FB61F9211248F939F93AF93BF935D
:102F200080916805811113C08091D4079091D507D5
:102F3000A091D607B091D7074196A11DB11D8093EE
:102F4000D4079093D507A093D607B093D707BF9126
:102F5000AF919F918F911F901FBE1F9018952FB713
:102F6000F8948091D4079091D507A091D607B0919D
:102F7000D7072FBF08958091F407882319F00E9486
:102F8000AF1708950E94060ECB01089560914A087C
:102F90006695669570E04BE050E088E591E00E9410
:102FA0003D35892B19F481E0809348080E94BB17B6
:102FB000909377058093760580914908846080938B
:102FC0004908089590914A0890FF42C0882309F467
:102FD00040C08B3208F03FC08F73282F220F220F82
:102FE00080914A088370282B20934A0880914908D1
:102FF000816080934908662381F030914B084091AD
:103000004C0850914D0860914E0870914F08809186
:103010005008909151080E94401560914A086695A9
:10302000669570E04BE050E088E591E00E943D3508
:10303000892B99F00E94D00C81E08093790520E0E3
:1030400040914D0860914C0880914B080E949A1560
:10305000089581E0C2CF8AE2C0CF0E94C617ECCFAC
:1030600080914A08869586958F5F8B3208F081E0C3
:1030700061E00E94E217089590914A08969596950E
:103080008FEF890F913009F48AE261E00E94E21724
:10309000089590914A0890FF09C0969596959817C3
:1030A00028F0961718F40E943018089561E00E94E5
:1030B000E21708950E94AF1720913B0830913C0819
:1030C000232B222321F08093B4079093B5072091FE
:1030D0003D0830913E08232B222321F08093B20734
:1030E0009093B307E0911808F0911908309749F0D0
:1030F00082E0809339080680F781E02D89E398E02B
:103100000995089520913B0890913E0830913D0823
:10311000662309F45AC040913C08242B292B232B09
:10312000222331F098E09093370891E0909336088D
:103130008D3C41F40E94110D819580933C080E94C2
:103140005A180895E2E3E80FE231C8F7F0E0E35ED1
:10315000F94C0C9486340E94110DEFCF0E94110D92
:10316000819580933B08EBCF0E94110DFACF0E940E
:10317000350D80933D08E3CF0E94350D8195F9CF41
:103180000E94350D819580933E08D9CF0E94350D60
:10319000FACF815D990B21E030E001C0220F8A95C2
:1031A000EAF780913A08822B80933A08C8CF809141
:1031B0003808816080933808C2CF809138088260D7
:1031C000F9CF809138088460F5CF8D3C59F4809117
:1031D0003C0887FF0DC010923C08222359F410923E
:1031E000370808C08E3C81F480913C0818169CF387
:1031F000222381F080913D0890913E08892B811116
:103200009ECF109236089BCF8F3C41F427FFF0CF22
:1032100010923B0880913C088823E0CF803D19F450
:103220001216B4F3E5CF893D29F413160CF710926A
:103230003D08DECF8A3D19F437FFDACFF8CF8B3D5A
:1032400029F497FFD5CF10923E08D2CF8C3D19F4C8
:103250001916CCF3CDCF9FE2980F983090F4815D92
:10326000990B41E050E0BA0102C0660F771F8A95C2
:10327000E2F7CB01809590913A08892380933A0830
:10328000B7CF8D3D31F4809138088E7F8093380818
:10329000AFCF8E3D21F4809138088D7FF7CF8F3DE1
:1032A00009F0A6CF809138088B7FF0CFCF93C82F3D
:1032B000882309F44DC08CEF8C0F813A08F061C06F
:1032C0008091A401882301F18091340887FF1CC0FC
:1032D000EC2FE695E695E695F0E0E05AFC4F82810A
:1032E00090E04C2F477021E030E002C0220F331FE6
:1032F0004A95E2F782239323892B99F08C2F0E9421
:10330000BC0D0E94861109C0EAE5F3E08191C8175F
:10331000A9F323E0E036F207C9F78091A4018823DE
:10332000C9F08091340887FF15C0EC2FE695E6952B
:10333000E695F0E0E05AFC4FC77081E090E001C0F4
:10334000880FCA95EAF7C281C82BC2830E948611F2
:10335000CF910895AAE5B3E0EFEF80E09D91C91702
:10336000A9F3EF3F19F4911101C0E82F8F5F863068
:10337000A9F7EF3F59F30E2E000CFF0BE85AFC4F54
:10338000E4CF80E28C0F883068F4C77081E090E071
:1033900001C0880FCA95EAF7C0915208C82BC093A4
:1033A0005208D4CF8BE58C0F833038F42C2F245265
:1033B000330BC9010E94700DCBCFE8E5EC0FEB3168
:1033C00050F4F0E0EE0FFF1FE05EFC4F8081918132
:1033D0000E94960DBDCF83E38C0F833108F0B8CFE8
:1033E00061E08C2F0E948218B3CFCF93DF93EC0162
:1033F000805E9109089720F063EE71E1209711F447
:1034000069ED71E1CE010E944A068C2F0E94561987
:10341000DF91CF910895CF93DF93EC01FB018A8177
:10342000823039F4828193810E94F5198C81826007
:103430008C83DF91CF910895FB01808191810E945F
:10344000F5190895DB01FC018281813029F48D9109
:103450009C910E94F5190895823039F41396ED91EC
:10346000FC91149712968C91099508958823B9F1CF
:103470009CEF980F913A28F40E94BC0D0E9486118F
:10348000089590E2980F983088F4877021E030E03A
:10349000A90102C0440F551F8A95E2F7CA01809521
:1034A00090915208892380935208E8CF9BE5980FAA
:1034B000933028F480E090E00E94700D089598E524
:1034C000980F9B3128F480E090E00E94960D0895BB
:1034D00093E3980F933118F460E00E9482180895E6
:1034E000CF93DF93EC010E94361ACE01805E9109E2
:1034F000089720F068EF71E1209711F46DEE71E10B
:10350000CE010E944A06DF91CF910895FB01DC01B4
:1035100012968C91813029F4808191810E94701AD9
:1035200008958230E9F782819381F8CFFB01DC01B5
:1035300012968C91813021F4808191810E94701AC1
:1035400008951F93CF93DF93182FEB010E94561914
:10355000209739F4812F0E94361ADF91CF911F9165
:1035600008958FE99FE00197F1F700C000002197CF
:10357000EFCF109252088091A401882339F18091F5
:10358000340887FF23C0E2E6F3E08EE1DF011D92FD
:103590008A95E9F780E090E00E94700D80E090E06D
:1035A0000E94960D109255080E94861186E0E9E36C
:1035B000F8E0DF011D928A95E9F710923708109222
:1035C0003608109238080E945A180895EAE5F3E088
:1035D00086E0DCCF0E94B91A2FEF84E39CE02150F3
:1035E00080409040E1F700C0000088E19AE00FB60B
:1035F000F894A895809360000FBE90936000FFCF71
:10360000A8E0B0E0E6E0FBE10C9426347C01DC01AC
:1036100014968C91882309F4C8C061E0C7010E9408
:1036200018118C01F7018581882309F180914308E5
:10363000909144080097D9F008171907C1F0FFE0EE
:103640008F9FC0011124FC01E655FE4F20812460AC
:1036500020838A559E4FDC010D931C930E941D12FE
:103660001092550861E0C7010E9418118C01F70102
:103670008581882309F43BC29801375720383105EA
:1036800008F03CC1003108F090C08FEF93E00E9439
:10369000603581118AC098EAE92EFF24F394011164
:1036A00053C01A821982FE01339686E0DF011D9213
:1036B0008A95E9F76701BFEFCB1ADB0AC7010E94C1
:1036C000603589831A82882309F46FC0813009F03C
:1036D00070C087010E5F1F4FC6010E9460358A834C
:1036E000882309F462C09FEF980F9330E0F5E3E080
:1036F000EE0EF11CC8010E9460358B83882309F40B
:1037000054C01C828E010F5F1F4FD8018C918823FB
:1037100089F2813009F090C011968C911197813017
:1037200009F049C06801B2E0CB0ED11CF8018281DA
:1037300060E070E0893311F460E570E00E94A11A46
:1037400086010F5F1F4FE1CFE114F4E0FF0669F13E
:10375000C7010E94603597012F5F3F4F79018111AA
:10376000F3CF01509CCF8430B9F482E0E82EF12CE5
:10377000C8010F5F1F4F0E946035E1E0F0E0EC0FE1
:10378000FD1FEE0DFF1D8083882379F08C3731F407
:10379000FE01EE0DFF1D12827801B4CFFFEFEF1A8C
:1037A000FF0A27E0E216F10419F72896EDE00C94E1
:1037B00042347601A7CF823049F46801F2E0CF0E9F
:1037C000D11C12968C910E945619BACF833049F4BD
:1037D0006801B2E0CB0ED11CF80182810E94361A3A
:1037E000AFCF843019F00F5F1F4FABCF12962C91E3
:1037F0000E5F1F4F80E090E06AE0A8014F5F5F4FCF
:103800002053330B2A30310558F0009709F499CF33
:10381000AFE9BFE01197F1F700C000000197F5CFC5
:10382000689FF001699FF00D1124C9018E0F9F1F41
:10383000F80121818A01E1CFE82FF0E0E656F44F4C
:103840007490282F26952695269530E0F901E657A5
:10385000F44FA4908770882EB12C082E02C0B59426
:10386000A7940A94E2F7B1E0AB22BB24F901E65831
:10387000F44FC490D12C02C0D594C7948A95E2F736
:10388000E1E0CE22DD24F901E659F44F9490A11431
:10389000B10449F5CD2891F086EE0E94561960E0FA
:1038A00070E0872D0E94A11A86EE0E94361AA1149C
:1038B000B10449F081EE0E94361A05C060E070E064
:1038C000872D0E94A11AE92DF0E0082C02C0F59581
:1038D000E7950A94E2F7E0FF34CF60E070E08CE215
:1038E0000E94A11A2ECF81EE0E945619CD28A1F672
:1038F00060E070E0872D0E94A11ADCCF9181909347
:10390000420890819093410890E29093A501109312
:10391000400800933F08980130522115304258F575
:103920008681803108F4D6C1F801FF270D3308F4F1
:10393000C8C0D70115968C91882309F40DC10130B8
:10394000BCE71B0709F440C00330ECE71E0709F48D
:10395000BAC10115FCE71F0709F0BCC10E94B91AE2
:103960002FEF34E38CE0215030408040E1F700C07D
:1039700000000E94390E980130542115304198F40E
:10398000D70116969C919031C0F0F801FF270D33B6
:1039900008F497C00837ECE71E0759F6882309F4A6
:1039A00090C182E086C098013A9521153F4170F49C
:1039B000F801FF270D3308F46BC0882309F4CCC04D
:1039C0000130FCE71F0729F60E94EA1AC801805A55
:1039D00092458032910508F47DC1805694400D33A4
:1039E000110508F44EC08F3F910511F008F055C045
:1039F000480199242FE0029FF0011124CF018A553C
:103A00009E4F5C01E655FE4F8081816080830E945D
:103A1000AF1790934608809345082FE0289DC0017A
:103A2000299D900D11249C012A553E4F6901D90111
:103A300012968C9112978F5F12968C9312978091A9
:103A4000550890915208892B13968C9313971596CD
:103A50004D915C9116971D966D917C91C5010E94C8
:103A60005A0DF601848181FD98C0902F812F90938B
:103A7000430880934408D70115968C91811159CF42
:103A80000CC0F801E65EF34FE491E093A50151CF3D
:103A9000E65EF34FE491E093A501D70115968C9172
:103AA0000737BCE71B0709F075CF882309F405C168
:103AB00081E00E948E0643E062E081E00E942107DF
:103AC00074CEE65EF34FE491E093A501C8019755EB
:103AD0008F3F910509F008F7480199249FE0099F5D
:103AE000F0011124DF01AA55BE4F5D018BCFC80143
:103AF00097558F3F910511F008F052C0BFE00B9F22
:103B0000F00111249F012A553E4F6901E655FE4FF1
:103B100080818E7F8083D9011B964D915C911C978B
:103B20001D966D917C91C9010E945A0DF601848108
:103B300081FF36C2C6010E940312209143083091D2
:103B40004408F70185810217130721F410924408F5
:103B5000109243088111FDCED701CD90DC90C601B3
:103B60000E94ED06182FB601812F0E94DF100E94DF
:103B70003F08182FD70115966C91159716962C9122
:103B800022952F70E92FE295EF70903C08F0E2C08B
:103B9000F0E0E15DF94C0C94863490E080E067CF72
:103BA000809152088272F801E052F847E531F10540
:103BB00008F073CFE55CF94C0C94863480914A0888
:103BC00080FF1EC0282F2E7F20934A0830914B087B
:103BD00040914C0850914D0860914E0870914F08EB
:103BE00080915008909151080E9440150E94D00C7D
:103BF000809149088160809349080E94150AD5CDBB
:103C0000816080934A0861E0869586950E94E2175C
:103C1000CCCD4CE358E160E378E10E94FA0CC5CDCD
:103C200040E358E16CE378E1F8CF48E356E16EE217
:103C300076E1F3CF4EE256E168E376E1EECF4FE472
:103C400056E162E476E1E9CF42E456E16FE476E1E1
:103C5000E4CF49E656E16CE576E1DFCF4CE556E18D
:103C600069E676E1DACF40E855E166E675E1D5CF61
:103C700046E655E160E875E1D0CF61E081E0C6CF6E
:103C800065E082E00E94491890CD68E086E0FACFB6
:103C90006EE089E0F7CF64E18FE0F4CF67E185E182
:103CA000F1CF61E088E1B2CF62E289E1EBCF61E080
:103CB00083E2ACCF6AE285E2E5CF81E00E949A061A
:103CC000FACE82E0FBCF6FEF7FEF80E090E00E94C2
:103CD000A2357ACEF701C080D180C6010E94ED10D6
:103CE000182F682FC6010E94B6063DCF092F0F700E
:103CF000903110F00295007F6623C9F0002369F02F
:103D000080E2810F883010F011110BC080915208B1
:103D1000802B809352080E948611812F0E94561991
:103D200019C080915508802B80935508F4CF812FBE
:103D30000E94361A002371F0009580E2810F8830CE
:103D400010F011110CC0809152088023809352080A
:103D50000E94861160E0C7010E94181126CD809153
:103D60005508802380935508F3CF892F8F70907F5B
:103D7000903211F08295807F113061F4662329F032
:103D8000263040F70E94D911E5CF253018F70E9460
:103D9000ED11E0CF662319F02223A1F3BECF222339
:103DA000B1F3193349F4BFEFE7EEF3E0B150E0406F
:103DB000F040E1F700C00000812F0E94361ACACF00
:103DC000892F869586958370882359F0813011F666
:103DD000812F9370611102C080E090E00E94960DE7
:103DE000B9CF812F9370611102C080E090E00E94F2
:103DF000700DB0CF0E948218ADCF892F83708111D2
:103E000036C0611129C0812F829586958770880FF1
:103E1000880F212F2F70082E01C0220F0A94EAF775
:103E20001071112341F04FE050E001C0440F8A951A
:103E3000EAF7142F1095969596959370923091F01D
:103E4000812F822B933031F080915308913039F0DB
:103E5000212B82230E9488060E945F0D7BCF822B3C
:103E6000812BF8CF212B809153088227F3CF662333
:103E700061F190FFF1CF812F829586958770880F31
:103E8000880F212F2F70082E01C0220F0A94EAF705
:103E90001071112341F04FE050E001C0440F8A95AA
:103EA000EAF7142F1095969596959370923099F0A5
:103EB000812F822B933031F080915408913041F062
:103EC000212B82230E948B06C7CF823028F2D3CFCA
:103ED000822B812BF7CF212B809154088227F2CFA0
:103EE000092F0F70662339F0802F0E948E06812FD4
:103EF0000E94D911B1CF0E94ED11802F0E949A0625
:103F0000ABCF823F49F160F4803F99F0813FE9F007
:103F10006623A9F1222381F1812F0E9456199CCF9B
:103F2000833FF9F06111F6CF211136C0892F8F71CF
:103F3000E5CF662341F0253008F08ECF892F8F71B1
:103F40000E94AA0689CF2530F7CF892F8F7166236B
:103F5000A9F20E948E0680CF892F8F716623C9F344
:103F6000CDCF80E0662309F4ADCF9F7181E001C021
:103F7000880F9A95EAF7A6CF892F8F71EACF22236F
:103F8000A9F2893349F42FEF37EE83E02150304016
:103F90008040E1F700C00000812F0E94361A5CCFFC
:103FA000D70115968C91D6CD80919608803178F402
:103FB00080919508882359F0E09157082091560880
:103FC000309191084091900857E02E1301C0089558
:103FD0006E2F70E05E9FF0011124DF01A85AB74FE9
:103FE00014968C911497882361F111968C911197F6
:103FF000831327C08C91841324C015968C91159738
:1040000081111FC012968D919C91A0919208B09140
:1040100093088A1B9B0B8639910598F4809196082A
:104020008F70806180939608E25AF74F80818F707D
:104030008061808380E998E00E94001B0E94420713
:104040000895FB013196E770C0CFADE0B0E0EBE240
:10405000F0E20C9425348C0186E0F801DE0118961C
:1040600001900D928A95E1F7F8017080F580A280A9
:10407000B380848190E9892E98E0992E609094080D
:10408000611018C0882399F0FF2009F413C1C801FA
:104090000E944711882309F40DC187E0F801A0E9C7
:1040A000B8E001900D928A95E1F70E94D41FFF2499
:1040B000F39453C0D09095082091920830919308C2
:1040C000A501421B530BDD2009F4C4C0463951053C
:1040D00008F07AC0882359F380919108C180E0905C
:1040E0009608FFE0FE1508F459C0C81215C080916B
:1040F0009008871111C0F1104BC08E2D8F70806118
:104100008093960880E998E00E94001B80919608B1
:10411000F8018683F12C21C0F1103AC040E06C2DEB
:10412000872D0E94C00F40E06C2D872D0E94C00F8C
:10413000F82E8111EFCF888599850E943811292F9B
:1041400022952F70903470F49F702230A0F0992344
:10415000B1F0F8019681903190F48F2D2D96EEE01C
:104160000C9441342A5F2F70223068F0C8010E94FD
:10417000001BFD2CF2CF992311F0882371F3805E90
:10418000883058F3F3CF803F40F3815F8230F9CF1E
:1041900080919608816080939608BCCFC8123CC07D
:1041A00080919008871138C0F11036C0F801E6827E
:1041B000C8010E94001B87E0F801A0E9B8E0019067
:1041C0000D928A95E1F773CFE0909608FFE0FE1517
:1041D00050F080E998E00E94001B87E0F401119202
:1041E0008A95E9F797CF882309F461CF90919108D8
:1041F000F8018181981310C08091900887110CC03C
:10420000F1100AC0E682C8010E94001B87E0F40199
:1042100011928A95E9F74BCFC8010E944711882374
:1042200009F448C0FF2009F445C080919608803207
:1042300008F433CF80919008909191089A838983F4
:10424000BC82AB826D821E82EF82CE0101960E94FB
:10425000001B23CF4639510508F0BFCF882309F44E
:1042600026CFFF2039F1909191088181981318C0D1
:1042700080919008871114C08091960880FD9BCF93
:10428000803108F498CF8683807F803F09F490CFF7
:104290008681982F907F905F8F70892B868388CF3F
:1042A000C8010E9447118111F8CE80919608816063
:1042B00080939608C8010E94001BF9CEABE1B0E0E4
:1042C000E4E6F1E20C9430344E8B5F8B688F798F8B
:1042D0008A8F9B8F9111109255081D8A86E0FE01EE
:1042E0007696DE011F9601900D928A95E1F78B89F3
:1042F000882329F061E0CE010F960E94181187E013
:10430000FE013F96DE01189601900D928A95E1F725
:10431000CE0108960E94252081112BC087E0FE0166
:104320003896DE01119601900D928A95E1F7209161
:104330005608409157088C858823D9F030E0C90190
:1043400001968770992750E084179507E9F097E068
:10435000929FD001939FB00D1124A85AB74FFE0130
:10436000319601900D929A95E1F7809356080E943C
:10437000420717E08091570890915608891312C0A0
:104380006B96E3E00C944C340E94B91A10925608D4
:104390001092570887E0E0E9F8E0DF011D928A9566
:1043A000E9F7E7CF189FC0011124885A974F0E9460
:1043B0002520882329F38091570890E00196877083
:1043C000992780935708D6CFA6E0B0E0EAEEF1E255
:1043D0000C942F340E94AF178C018091F6079091B6
:1043E000F7078017910779F019821A820E94AF1798
:1043F000BC0149815A8180E090E00E945E211093C7
:10440000F7070093F6072696E4E00C944B34AAE2F3
:10441000B0E0EDE0F2E20C94303485E993E0FC0189
:1044200001962091F100208323E08D399207B9F79E
:1044300080919603893009F456C0C8F4823009F49B
:10444000B3C0833009F482C0813071F18091E800FB
:1044500083FFE7C080919503909196039A3008F00E
:10446000E0C0E92FF0E0E05BF94C0C9486348A3030
:1044700009F489C08B3051F780919503813231F76F
:104480008091990390919A03892B01F78091E8001C
:10449000877F8093E8000E94A60E80919703809307
:1044A000A4010E94B91AD2CF80919503813A71F686
:1044B0008091E800877F8093E80080919903909134
:1044C0009A03892B61F060E080E090E070E00E9448
:1044D0004D0E8091E8008B778093E800B7CF68E0BD
:1044E0008DE993E0F3CF80919503813209F0AECF4F
:1044F0008091990390919A038D7F892B09F0A6CF23
:104500008091E800877F8093E8008091E80082FF37
:1045100018C09091F3008091F200029731F48091DD
:10452000F100813011F0863021F48091F100809308
:10453000A5038091E8008B778093E8000E94A60E87
:1045400085CF8091BF078111E0CF80CF8091950307
:10455000813A09F07BCF8091990390919A03892B3E
:1045600009F074CF8091E800877F8093E800809104
:10457000E80080FFFCCF8091A4018093F10080913E
:10458000E8008E77D9CF80919503813209F05ECF14
:104590008091E800877F8093E8000E94A60E8091BA
:1045A00098038093910352CF80919503813A09F04B
:1045B0004DCF8091E800877F8093E8008091E800EC
:1045C00080FFFCCF80919103D8CF803889F082386A
:1045D00041F5809199038F70873018F58093E90039
:1045E0008091EB0085FB882780F91092E90006C0D6
:1045F0008091920390916905911182609091E800F9
:10460000977F9093E8008093F1001092F1008091E1
:10461000E8008E7723C0811116C080919703813006
:1046200011F18091E80083FF0AC08091E800877F44
:104630008093E8008091EB0080628093EB00AA9663
:10464000E3E00C944C34823061F780919703882327
:1046500089F01092E9008091E800877F8093E8005C
:104660000E94A60EDECF81E0933009F080E08093B7
:104670006905EFCF809199038F702FEF280F2630B7
:1046800080F68093E9002091EB0020FFE2CF933089
:1046900031F48091EB0080628093EB00DACF90914F
:1046A000EB0090619093EB0021E030E0A90102C0A3
:1046B000440F551F8A95E2F74093EA001092EA00F2
:1046C0008091EB008860E8CF8111ABCF1091970308
:1046D0001F778091E3008078812B8093E3008091A5
:1046E000E800877F8093E8000E94A60E8091E80092
:1046F00080FFFCCF8091E30080688093E30083E03B
:10470000111101C082E08093BF078BCF80588230A7
:1047100008F087CF40919703509198034C3D83E078
:10472000580799F583E08A838AE289834FB7F89422
:10473000DE01139620E03EE051E2E32FF0E05093DB
:104740005700849120FF03C082958F703F5F8F7068
:104750008A30C8F0895C90E08D939D932F5F24315F
:1047600061F74FBF8091E800877F8093E8006AE29D
:1047700070E0CE0101960E944D0E8091E8008B778B
:104780008093E8004ECF805DE6CF809199039091B1
:104790009A03252F33272330310509F44AC078F5D1
:1047A0002130310509F479C08BE590E0ECE0F7E0C9
:1047B0002230310509F035CF2091E800277F209382
:1047C000E80020919B0330919C038217930708F423
:1047D0009C0140E02115310509F064C0411162C01F
:1047E0008091E80082FDC9CF8091BF07882329F21C
:1047F000853019F28091E80083FFF2CFBECF2132DD
:10480000310509F43BC02232310509F00ACF83306B
:10481000910508F006CFFC01EE0FFF1FEB52FD4F94
:104820000190F081E02D8E529D4FDC018C9190E043
:1048300011C0CA019927413089F082309105B1F049
:10484000892B09F0EECEE9E9F7E0E4918E2F90E0B4
:10485000E9E9F7E0009709F4E4CEAECFE7E8F7E046
:10486000E4918E2F90E0E7E8F7E0F4CFE9E7F7E096
:10487000E4918E2F90E0E9E7F7E0ECCF83309105EB
:1048800008F0CFCEFC01EE0FFF1FE552FD4F019067
:10489000F081E02D89E090E08FCF82E190E0E7E6C3
:1048A000F7E08ACF8091BF07882309F466CF85306F
:1048B00009F463CF8091E80083FD5FCF8091E80029
:1048C00082FD8ECF8091E80080FF84CF9091F3002D
:1048D0008091F2002115310519F08830910550F0D2
:1048E00041E0089709F040E08091E8008E778093DE
:1048F000E80070CF44914093F10031962150310986
:104900000196E8CF803809F08CCE8091E800877F4F
:104910008093E800809193038093F10078CE811119
:1049200080CE10919703123008F07BCE8091E80082
:10493000877F8093E800109393030E94A60E1123B3
:10494000D1F084E08093BF0742E061EC81E00E94F7
:104950002E0F42E261EC84E00E942E0F42E261ECF5
:1049600082E00E942E0F42E260EC83E00E942E0F54
:104970008091BF0756CE8091E30087FDE2CF81E0B2
:10498000E1CF9C014FB7F8948091D4079091D5075F
:10499000A091D607B091D7074FBF821B930B089504
:1049A000A7E1B0E0E6EDF4E20C9424341D861C8609
:1049B000FE013E9686E0DF011D928A95E9F78CE0C4
:1049C000E82E83E0F82E8E01045F1F4F90E1C92E80
:1049D00093E0D92E3801AA24A394B12C36E1832E7A
:1049E00033E0932EF70181917F018F3F09F441C09D
:1049F000F894E82FE295EF70F0E021A18F70A50107
:104A000002C0440F551F8A95E2F7CA01922F982BD6
:104A100091A392A18095892382A3789400C0E0E1BC
:104A2000F3E031E0512C21912F3F09F494C0A22FE3
:104A3000A295AF70A05EB0E08C9190E02F7002C0A4
:104A4000959587952A95E2F78170811184C0832F0F
:104A5000582A330F8E169F0631F7F7013197808160
:104A60008F3F11F00E94570950EA5A95F1F7D8018B
:104A70005C920F5F1F4FCE14DF0409F0B3CF48E004
:104A800050E0B3018DE595E00E944A35009166053E
:104A900010E00954184F892B09F45FC088E0F30136
:104AA000ADE5B5E001900D928A95E1F781E0809344
:104AB00089030E94AF1790938803809387038091A6
:104AC000F407882309F4A2C01A8219821C821B826F
:104AD000809190038A3008F062C04DE253E1FE01FC
:104AE00031967F01BF01C8010E94761067018823BB
:104AF00009F47AC043EE52E1B701C8010E94761072
:104B0000882309F471C041E452E1B701C8010E9451
:104B10007610882309F468C041E053E1B701C80169
:104B20000E947610882309F45FC010929003809150
:104B3000650590E044E050E0B6018954984F0E942A
:104B40004A3521E020938603892B09F03FC0679600
:104B5000EFE00C94403480E07BCF80918903882380
:104B600009F4ADCF80918703909188030E94C124FE
:104B7000059708F4A4CF44E050E06DE575E0C80166
:104B80000E944A35892B41F084E0EDE5F5E0D8013B
:104B900001900D928A95E1F71092890390CF809150
:104BA0008403909185030E94C124843F914008F0C2
:104BB00094CF80918603882351F284E0FE013196E0
:104BC000DF011D928A95E9F710928603E091650551
:104BD000F0E0E954F84F89819A81AB81BC818083F0
:104BE0009183A283B383B3CF809190038F3F39F435
:104BF0000E94AF179093850380938403DACF8F5F71
:104C0000809390038A3008F492CFF2CFE09065054C
:104C1000F12CF701E954F84F7F01F801808191816F
:104C2000A281B3818093D9079093DA07A093DB0721
:104C3000B093DC0789ED97E00E94150F8093D807A9
:104C40008091DD079091DE07A091DF07B091E0072A
:104C5000F70180839183A283B383C090E107D09052
:104C6000E207E090E307F090E407809180039091E1
:104C70008103A0918203B0918303C816D906EA0686
:104C8000FB06B1F0C0928003D0928103E0928203D0
:104C9000F09283030E94E90DC61AD70AE80AF90ABE
:104CA000C092F007D092F107E092F207F092F3077A
:104CB0008BE0E5EEF7E0DE01119601900D928A950A
:104CC000E1F78091E50786958695F090E607E090FC
:104CD000E707D090E8070091EE071091EF071092D8
:104CE000EF07112309F433CF10FF0BC0998190FF18
:104CF0001CC090914A08916090934A0860E00E941D
:104D0000E21711FF06C020E04D2D6E2D8F2D0E9461
:104D10009A1512FF04C0002359F00E94C61713FF12
:104D200016CF81E08093790512CF0E94D70CE9CF8E
:104D30000E94D00CF4CFCDB7DEB7A8970FB6F89489
:104D4000DEBF0FBECDBF85B7806885BF85B78068E1
:104D500085BF84B7877F84BF0FB6F894A8958091EC
:104D60006000886180936000109260000FBE80E850
:104D700090E00FB6F89480936100909361000FBEAD
:104D800085E599E090935703809356030E94F60EB1
:104D90000E94650F8091E20084608093E200789425
:104DA0008091BF07882399F08091E9001091EC0071
:104DB0001795112717958F70182B1092E900809185
:104DC000E80083FD0E9407221F701093E90082E033
:104DD00084BD93E095BD9AEF97BD80936E001092CD
:104DE000F0071092F1071092F2071092F3070E9459
:104DF0006D11811102C00E9466148091D8008061FB
:104E00008093D8002AE12A95F1F700C08091D9005B
:104E100080FDE1C00E94F60E1092BF071092F407C9
:104E20001092F507109268018BE1809363018093E3
:104E30006401809168018091680191E08927880F61
:104E4000880F8093660594E0981B9093650584E92C
:104E50000E94570986E60E94570987E90E94570970
:104E600086EC0E94570900E113E0D8018D918D0175
:104E70008F3F11F00E945709B3E006311B07A9F7D5
:104E800088E0E7EBF7E0DF01282E1D922A94E9F78E
:104E9000EDE5F5E0DF011D928A95E9F780E090E00D
:104EA0000E946E35853E9E4F21F40E946D11811146
:104EB00063C065EE7EEF80E090E00E94A23560E086
:104EC00082E090E00E94843581E08093530861E0A5
:104ED00083E090E00E94843560E074E184E090E03B
:104EE0000E94A23560E086E090E00E94843560E098
:104EF00087E090E00E94843540E050E0BA0188E00D
:104F000090E00E94963560E083E290E00E94843554
:104F100060E08CE090E00E94843560E08DE090E0FD
:104F20000E94843519821A821B821C821D821E8275
:104F30001F82188648E050E067E170E0CE010196DC
:104F40000E94743540E050E0BA018FE190E00E9489
:104F5000963580E00E9448140E94661440E050E0BC
:104F6000BA018FE090E00E94963540E050E0BA012F
:104F700083E190E00E94963582E090E00E946035E7
:104F800080936A0584E090E00E946E359093350826
:104F9000809334080E94D024EFEFF6E721E0E1503F
:104FA000F0402040E1F700C000000E94D024E091D2
:104FB000F50711E0E127EE0FEE0FF0E0E954F84FAE
:104FC000808181FF17C06FEF7FEF80E090E00E944B
:104FD000A2350E94390E81E08093F4078093F50793
:104FE00080936801109263018BE1809364010E94B9
:104FF000AA321FCF83E090E00E9460350E948806AD
:105000008091F4078127880F8093A60780E880931A
:105010007E050E942E316BE070E089ED9AE00E94DF
:105020007616882309F443C08091A60765E070E0F6
:1050300081FD51C184ED9AE00E9476168823B9F172
:105040006DE070E082EC9AE00E947616882379F198
:105050000E94E90D69A37AA38BA39CA3DC01CB0179
:10506000805A9541AF4FBF4F8093AA079093AB07EB
:10507000A093AC07B093AD07E6EAF5E080E092E0DC
:10508000DF019C011D9221503040E1F7F0937D0536
:10509000E0937C058FEF9FEF9093A9078093A8077B
:1050A00081E08093B1078093AE071092A7078091AB
:1050B000670581119EC088E090E00E9468356B0111
:1050C0007C0183E290E00E946035282F30E040E0D0
:1050D00050E060E070E080E090E000E20E94A234E6
:1050E000F22FA32EB42EB52FA62FE72F97018601FE
:1050F00040E050E0BA01FC29A12AB22AB32BA42B2C
:10510000E52B862B972BF0934A08A0924B08B09280
:105110004C08B0934D08A0934E08E0934F0880933D
:105120005008909351082091490823602093490822
:10513000F43008F04CC025E020934A0810924B0848
:105140002FEF20934C0828E720934D0810924E082B
:1051500025E030E04FEF58E760E07E2F0E944015D9
:1051600088E090E00E9468356B017C0183E290E06A
:105170000E946035282F30E040E050E060E070E0B1
:1051800080E090E000E20E94A2345901B42FA52FE4
:10519000F62FE72F9701860140E050E0BA01AC28D6
:1051A000B12AB22BA32BF42BE52B862B972BA092A5
:1051B0004A08B0924B08B0934C08A0934D08F09366
:1051C0004E08E0934F0880935008909351080E9436
:1051D000000A0E94D00C0E94010D80914A0880FFB5
:1051E00005C060E0869586950E94E21781E0809375
:1051F00067058091F407811102C00E94AD3289E6F3
:1052000091E09093190880931808FAE08F2E912C62
:10521000A12CB12C8091BF07853049F48091BF0744
:10522000853009F45BC00E94B91A0E945F0D0E948C
:10523000D0240BE615E0E7EBEE2EE7E0FE2ED701DB
:10524000F80191918D9173E7272E75E0372E2E1678
:105250003F0609F497C09817A1F34090F407D12CAA
:1052600033243394D701CD907D01F80151908F0103
:105270005C1439F15C24712C66246394862D85219D
:105280008823B9F04420A9F07982DA820E94AF170E
:105290009C838B833D8291E0862D8C21811101C0FE
:1052A00090E09E8349815A816B817C818D810E942F
:1052B0005E217394660CF6E07F12E0CFF80131971F
:1052C000C082D39468E0262ED210CCCF0E94060E66
:1052D000772473945CC08FEC9AE0AECE8091BF07C8
:1052E000843031F10E9483161092680548E150E045
:1052F00060E40FB6F894A895409360000FBE6093E9
:10530000600083B7817F846083BF83B7816083BF80
:105310007894889583B78E7F83BF0FB6F894A8954D
:1053200080916000886180936000109260000FBEE1
:1053300080916905882309F471CF0E94D024E7EB9E
:10534000F7E08191811106C08FEB97E08E179F07E0
:10535000C1F764CF80E189BD82E189BD09B400FE57
:10536000FDCF8091D8008F7D8093D8008091E000A0
:1053700082608093E0008091E00081FDFCCF0E947C
:10538000B91A4CCF981369CF0E94E421712C8091F7
:10539000F4078823F1F000914308109144080115A7
:1053A0001105B9F080914508909146080E94C124EA
:1053B0008739910570F02FE0029FC0011124FC0194
:1053C000E655FE4F208122FD04C08A559E4F0E9463
:1053D0001D1280914808882309F466C0809147080F
:1053E000E0914A08E695E695E81BE093780582305F
:1053F00009F08EC1F0E0EB50F54FE4910E2F10E074
:1054000056EEE52E5CE0F52E80917905882361F05B
:10541000109279050E94BB179093770580937605CB
:1054200010927B0510927A050E94BB179C01809117
:10543000760590917705A901481B590B4F3F5F47AF
:1054400098F5409175054423B1F01092750540918F
:10545000730550917405241B350B2F3F3F4758F4BB
:10546000405D5A4850937405409373052091490854
:10547000286020934908C0907A05D0907B05800F62
:10548000911F909377058093760586E795E0F70165
:10549000099580917A0590917B05892B29F4CD2877
:1054A00019F081E0809375058091B107882309F494
:1054B000A8C08091AF079091B0070E94C124C29705
:1054C00008F461C00E94AF179093B0078093AF07B4
:1054D00086EA95E090937D0580937C058091F407A2
:1054E000882309F419C282E69BE00E947417809118
:1054F00054080E947606823009F482C108F078C10F
:1055000081117BC18AE59BE00E948217809142084D
:10551000805D0E94C2168FE39BE00E947417809109
:105520004108805D0E94C2168BE39BE00E947417C5
:1055300080913F089091400820917301309174014F
:105540008217930709F062C120918505203209F086
:105550005DC1EFE7F5E08F0181918032E1F3F80161
:1055600001900020E9F79F012150310979010E15C2
:105570001F0508F4CBC189E39BE00E94741780915A
:10558000A5010E94C2168091A8079091A907892BB6
:10559000A9F08091B107882389F08091A707811134
:1055A0000DC00E9495162091A8073091A90780E0B0
:1055B00061E070E02115310509F0B4C18091AE07BA
:1055C0008823F9F00E94E90D69A37AA38BA39CA319
:1055D0008091AA079091AB07A091AC07B091AD075D
:1055E00029A13AA14BA15CA1281B390B4A0B5B0BEB
:1055F000DA01C9018F3F9F4FAF4FBF4710F40E94A0
:10560000831671100E94951686E0E9E3F8E0DE014A
:10561000119601900D928A95E1F7C0903A08009199
:105620003B0810913C08E0903D08F0903E08109235
:105630003B0810923C0810923D0810923E08812FC2
:10564000802B882371F08091B4079091B5070E9458
:10565000C1249C0180913708811125C2232B09F0B8
:1056600028C28E2D8F29882371F08091B2079091E6
:10567000B3070E94C1249C0180913608811151C258
:10568000232B09F054C280913A088C1116C08091E6
:105690003B08882311F0801310C090913C08992397
:1056A00011F091130AC020913E08211106C02091EB
:1056B0003D08211102C0892B81110E945A1886E0F1
:1056C000FE013196A9E3B8E001900D928A95E1F7C9
:1056D0000E945F0D9091B607891721F08093B6075D
:1056E0000E94E90D8091BF07843009F093CD83E0DB
:1056F0008093E9008091E80082FF8CCD8091E800E2
:1057000085FD4DC28091E8008B778093E80082CDC3
:1057100008E210E0F0E8EF2EFBE0FF2E883109F4FC
:1057200073CEE0F48F3009F440C058F4863031F184
:10573000893079F100ED17E040E7E42E49E0F42EDE
:1057400063CE8531B9F7F0E0E751F54FE4910E2FC4
:1057500010E080E0E82E8BE0F82E56CE843209F47B
:1057600040C0853271F1833229F7E7EEFAE0059106
:105770001491BEE6EB2EBCE0FB2E46CEF0E0EE50E0
:10578000F54FE4910E2F10E030ECE32E3CE0F32EC9
:105790003BCEE695F0E0E151F54FE4910E2F10E09D
:1057A0002EE3E22E2AE0F22E2FCEE695F0E0E45131
:1057B000F54FE4910E2F10E099E7E92E9AE0F92ECB
:1057C00023CE8E2F63E00E945834E92FF0E0EC5195
:1057D000F54FE4910E2F10E0A6E7EA2EA4E1FA2E91
:1057E00013CE04EF11E0E4E1EE2EECE0FE2E0CCE41
:1057F000833049F081E49BE087CE84E59BE084CE52
:105800008EE49BE081CE87E49BE07ECE9093740192
:105810008093730120E2209385051C01412C512CBB
:1058200029A23AA24BA25CA21092840574E8E72E4A
:1058300075E0F72EC201B101A50194010E94EA357D
:105840006DA37EA38FA398A7862F805D2DA03EA079
:105850004FA058A400E010E023282428252861F553
:1058600063E8E62E65E0F62E8093830529A33AA32C
:105870004BA35CA369A17AA18BA19CA1A501940172
:105880000E94EA356DA37EA38FA398A7862F805D23
:105890002DA13EA14FA158A501E010E0232B242B00
:1058A000252B51F480E229A03AA04BA05CA023282C
:1058B0002428252809F080E3D7018E937D0169A172
:1058C0007AA18BA19CA1A50194010E94EA3529A38C
:1058D0003AA34BA35CA30F5F1F4F0530110509F4DA
:1058E00038CECA01B901A50194010E94EA356DA321
:1058F0007EA38FA398A7862F805D2DA03EA04FA0EA
:1059000058A42114310441045104CBCFD8018D9106
:105910008D010E94C2162BCE89EF9AE00E94741767
:1059200032CE8F5F082F10E02B01082E02C0440CEE
:10593000551C0A94E2F7A20142235323452B89F315
:105940009091A60790FD43C098013695279536950E
:105950002795922F8295880F80763FE1380F8093AC
:10596000770120937A013093780190937B0124E6AC
:1059700030E047E050E065E771E088E70E9464317D
:10598000892B09F01BCEA80125E0440F551F2A954D
:10599000E1F78091A60780FD22C04A555A4F04E6E0
:1059A00010E020E230E060E488E70E94FC31892BBF
:1059B00009F004CE409450948091A8079091A907D3
:1059C000842195219093A9078093A807F7CD880F8C
:1059D000880F880F37E0380F20E093E0C0CFE6E86B
:1059E000F5E080E2DF011D928A95E9F7EAE1F3E054
:1059F000FEA3EDA366E173E097E0E92EDD24D394E6
:105A0000EDA1FEA1A191FEA3EDA3FB018191BF0138
:105A1000840F952F911D9C012A553A4F3AA329A333
:105A2000EA2FF0E0EA57FA4F80E090E06E2C681A17
:105A3000FD2C082E01C0FF0C0A94EAF729A03AA019
:105A400000E0D1011D911D011F21262D201B277073
:105A500030E0B12F022E01C0BB0F0A94EAF7319556
:105A6000219531092770332701C016952A95EAF749
:105A70001B2B2081212B20830F5F083011F701960B
:105A800031968830910591F6EEE1F3E02DA03EA02D
:105A9000E215F30509F0B4CF04E610E020E230E0AF
:105AA00046E855E080CF2830310508F4DACD8F3F45
:105AB00019F08F5F80933708002359F00E94110D71
:105AC0009FEF10160CF491E0899F802D1124809394
:105AD0003B08112359F00E94110D91E011160CF0B2
